:020000040800F2
:1000000000280020AD1000083D1000084310000833
:10001000491000084F1000085510000800000000AB
:100020000000000000000000000000005B1000085D
:100030006710000800000000731000087F1000081F
:10004000F5100008F5100008F5100008F51000087C
:10005000F5100008F5100008F5100008F51000086C
:10006000F5100008F5100008F5100008F51000085C
:10007000F5100008F5100008F5100008F51000084C
:10008000F5100008F5100008F5100008F51000083C
:10009000F5100008F5100008F5100008F51000082C
:1000A000F5100008F5100008F5100008F51000081C
:1000B0008D100008F510000800000000F510000881
:1000C000F51000080000000000000000F510000816
:1000D00000000000F5100008F51000080000000006
:1000E000F5100008F5100008F510000800000000E9
:1000F0000000000000000000000000000000000000
:0C01000000000000000000005FF808F1A3
:10010C0010B5054C237833B9044B13B10448AFF345
:10011C0000800123237010BD44000020000000006B
:10012C004C27000808B5034B1BB103490348AFF338
:10013C00008008BD00000000480000204C2700088B
:10014C0080B400AF064B1B68012B04D1044B00227A
:10015C001A60012300E000231846BD4680BC70479E
:10016C006000002080B400AF064B1B68012B04D14B
:10017C00044B00221A60012300E000231846BD4600
:10018C0080BC70476400002080B400AF064B1B6835
:10019C00012B04D1044B00221A60012300E0002340
:1001AC001846BD4680BC70476800002080B400AF84
:1001BC00064B1B68012B04D1044B00221A6001234F
:1001CC0000E000231846BD4680BC70476C00002040
:1001DC0080B400AF064B1B68012B04D1044B0022EA
:1001EC001A60012300E000231846BD4680BC70470E
:1001FC007000002080B400AF034B01221A6000BFD6
:10020C00BD4680BC704700BF6000002080B500AFC9
:10021C00224B1B68224A1360224B1B681F4A136037
:10022C004FF40051204801F04BFA03461A461D4B7F
:10023C001A601A4B1A681B4B1B689A422BD1174B2E
:10024C001A68174B1B689A4225D1154B1A68174B25
:10025C001B689A420DD0124B1B68144A1360104B4A
:10026C001B68002B17D1124B64221A60FFF7C2FFD8
:10027C0011E00F4B1B68013B0D4A13600C4B1B68C4
:10028C00002B08D1064B1B68002B01D1FFF7B2FFE6
:10029C00074B64221A6000BF80BD00BF0400002021
:1002AC000800002000000020001001400C0000207D
:1002BC003000002080B500AF2F4B1B682F4A136015
:1002CC002F4B1B682C4A13604FF480412D4801F0D2
:1002DC00F7F903461A462A4B1A60274B1A68284B23
:1002EC001B689A4245D1244B1A68244B1B689A42CE
:1002FC003FD1224B1A68244B1B689A420ED0204BDC
:10030C001B68214A1360204B1B68002B31D11F4BFB
:10031C0064221A601E4B01221A602AE01A4B1B68D9
:10032C00002B11D11B4B1B68B3F5967F05DA194BCB
:10033C001B680133174A13601BE0154B00221A602F
:10034C00154B01221A6014E0104B1B68013B0F4A3D
:10035C0013600E4B1B68002B0BD10B4B01221A6048
:10036C000C4B00221A600C4B00221A60084B002226
:10037C001A6000BF80BD00BF1400002018000020D0
:10038C0010000020001001401C0000203000002054
:10039C00640000207C0000206C00002080B500AFC1
:1003AC002F4B1B682F4A13602F4B1B682C4A136072
:1003BC004FF400412D4801F083F903461A462A4BAD
:1003CC001A60274B1A68284B1B689A4245D1244B5C
:1003DC001A68244B1B689A423FD1224B1A68244B53
:1003EC001B689A420ED0204B1B68214A1360204B8D
:1003FC001B68002B31D11F4B64221A601E4B01224B
:10040C001A602AE01A4B1B68002B11D11B4B1B687E
:10041C00B3F5967F05DA194B1B680133174A136045
:10042C001BE0154B00221A60154B01221A6014E0D8
:10043C00104B1B68013B0F4A13600E4B1B68002BC3
:10044C000BD10B4B01221A600C4B00221A600C4B87
:10045C0000221A60084B00221A6000BF80BD00BF4A
:10046C002400002028000020200000200010014063
:10047C002C00002030000020680000207C000020B0
:10048C007000002080B582B000AF78607B68002BD4
:10049C0022D100220121BD4801F029F900220221BC
:1004AC00BA4801F024F900220421B84801F01FF9E0
:1004BC0000220821B54801F01AF900221021B34896
:1004CC0001F015F900222021B04801F010F90122A9
:1004DC004021AE4801F00BF97B68012B22D101229F
:1004EC000121AA4801F003F900220221A74801F0DA
:1004FC00FEF800220421A54801F0F9F80122082198
:10050C00A24801F0F4F801221021A04801F0EFF804
:10051C00012220219D4801F0EAF8012240219B484C
:10052C0001F0E5F87B68022B22D1002201219748CB
:10053C0001F0DDF800220221944801F0D8F80122E4
:10054C000421924801F0D3F8002208218F4801F0D1
:10055C00CEF8002210218D4801F0C9F8012220218B
:10056C008A4801F0C4F800224021884801F0BFF805
:10057C007B68032B22D100220121844801F0B7F8BB
:10058C0000220221814801F0B2F8002204217F48A8
:10059C0001F0ADF8002208217C4801F0A8F80122F6
:1005AC0010217A4801F0A3F801222021774801F0AC
:1005BC009EF800224021754801F099F87B68042BC5
:1005CC0022D101220121714801F091F8002202216F
:1005DC006E4801F08CF8002204216C4801F087F879
:1005EC0001220821694801F082F801221021674894
:1005FC0001F07DF800222021644801F078F80022F7
:10060C004021624801F073F87B68052B22D100224F
:10061C0001215E4801F06BF8012202215B4801F0D8
:10062C0066F800220421594801F061F800220821E3
:10063C00564801F05CF801221021544801F057F89B
:10064C0000222021514801F052F8002240214F484D
:10065C0001F04DF87B68062B22D1002201214B487A
:10066C0001F045F801220221484801F040F800222F
:10067C000421464801F03BF800220821434801F0D0
:10068C0036F800221021414801F031F800222021D7
:10069C003E4801F02CF8002240213C4801F027F89C
:1006AC007B68072B22D100220121384801F01FF86A
:1006BC0000220221354801F01AF8002204213348A7
:1006CC0001F015F801220821304801F010F8012240
:1006DC0010212E4801F00BF8012220212B4801F0AB
:1006EC0006F801224021294801F001F87B68082B0B
:1006FC0022D100220121254800F0F9FF002202211D
:10070C00224800F0F4FF00220421204800F0EFFF03
:10071C00002208211D4800F0EAFF002210211B488E
:10072C0000F0E5FF00222021184800F0E0FF002235
:10073C004021164800F0DBFF7B68092B22D10022F8
:10074C000121124800F0D3FF002202210F4800F0D3
:10075C00CEFF002204210D4800F0C9FF0022082121
:10076C000A4800F0C4FF01221021084800F0BFFF26
:10077C0000222021054800F0BAFF00224021034846
:10078C0000F0B5FF00BF0837BD4680BD000C01402E
:10079C0080B500AF274B1B68B3F1FF3F02D0002B95
:1007AC0008D044E0234B00221A604FF47A7000F01A
:1007BC003FFB3CE0204B1B681846FFF763FE1F4BCA
:1007CC001B68012B0BD11C4B1B68013B1A4A136095
:1007DC00184B00221A604FF47A7000F029FBFFF7D7
:1007EC00AFFC0346012B09D1124B0A221A60124BA3
:1007FC0000221A604FF47A7000F01AFBFFF7B2FC7B
:10080C000346012B06D10B4B0B221A604FF47A7066
:10081C0000F00EFBFFF7B8FC0346012B06D1054B8D
:10082C000C221A604FF47A7000F002FB00BF00BF7C
:10083C0080BD00BF74000020340000209000002018
:10084C0080B500AFA64B1B680A3B062B00F2A081BB
:10085C0001A252F823F000BFAD08000853090008AC
:10086C003D0A0008350B0008690B000881080008D8
:10087C00970800084FF47A7000F0DAFA994B0022CE
:10088C001A60974B0B221A608DE14FF47A7000F0CE
:10089C00CFFA944B00221A60914B0C221A6082E121
:1008AC000020FFF7EFFD8F4B1B680A2B09D18E4BF5
:1008BC0009221A608A4B00221A604FF47A7000F0F9
:1008CC00B7FA8A4B1B68012B08D1864B1B68013386
:1008DC00844A13604FF47A7000F0AAFAFFF730FCE8
:1008EC000346012B09D17F4B00221A607E4B00225C
:1008FC001A604FF47A7000F09BFAFFF733FC034652
:10090C00012B0CD1764B0B221A60764B00221A600D
:10091C00754B00221A604FF47A7000F089FAFFF7D9
:10092C0033FC0346012B40F035816D4B0C221A60D1
:10093C006D4B00221A606B4B00221A604FF47A70D8
:10094C0000F076FA26E1684B1B681846FFF79AFD13
:10095C00644B1B680A2B06D1614B00221A604FF4C2
:10096C007A7000F065FA614B1B68012B08D15D4B66
:10097C001B6801335B4A13604FF47A7000F058FA2D
:10098C00FFF7DEFB0346012B0CD1554B0A221A60F4
:10099C00554B00221A60534B00221A604FF47A70A8
:1009AC0000F046FAFFF7DEFB0346012B13D14E4B4A
:1009BC001B68092B03D14C4B00221A6004E04A4BF4
:1009CC001B680133484A1360464B00221A604FF4EF
:1009DC007A7000F02DFAFFF7E9FB0346012B09D1E1
:1009EC004FF47A7000F05CFA3E4B00221A603C4BDC
:1009FC000D221A60FFF7C8FB0346012B40F0CC8098
:100A0C00374B0C221A60384B1B68002B03D1364B2A
:100A1C0009221A6004E0344B1B68013B324A136014
:100A2C00304B00221A604FF47A7000F001FAB3E0F8
:100A3C002D4B1B681846FFF725FD2A4B1B680A2B0C
:100A4C0006D1274B00221A604FF47A7000F0F0F9AF
:100A5C00264B1B68012B08D1224B1B680133214A02
:100A6C0013604FF47A7000F0E3F9FFF769FB03466B
:100A7C00012B0CD11A4B0A221A601B4B00221A6054
:100A8C00184B00221A604FF47A7000F0D1F9FFF77E
:100A9C0069FB0346012B16D1114B0B221A60124B2A
:100AAC001B68092B03D1104B00221A6004E00E4B7B
:100ABC001B6801330C4A13600A4B00221A604FF476
:100ACC007A7000F0B5F9FFF75FFB0346012B1BD1E1
:100ADC00054B1B68002B0BD1034B09221A600CE051
:100AEC0074000020780000203400002090000020CA
:100AFC002E4B1B68013B2D4A13602D4B00221A60B4
:100B0C004FF47A7000F094F9FFF762FB0346012B67
:100B1C0044D1274B00221A604FF47A7000F0C0F9D0
:100B2C00244B0E221A6039E0204B1B681846FFF745
:100B3C00A9FC214B1B68012B32D11C4B1B68092BC8
:100B4C0003D11A4B00221A6004E0184B1B680133C6
:100B5C00164A1360174B0F221A6021E0134B1B68C7
:100B6C001846FFF78FFC144B1B68012B1AD10F4B47
:100B7C001B68002B03D10D4B09221A6004E00B4BB0
:100B8C001B68013B094A13600A4B10221A6009E0EA
:100B9C0000BF08E000BF06E000BF04E000BF02E0B9
:100BAC0000BF00E000BF00BF80BD00BF34000020CC
:100BBC0078000020740000209800002080B500AF61
:100BCC0000F094FA00F028F800F0AEF800F060F8AD
:100BDC000D4801F0F5F94FF47A7000F045F90B4B24
:100BEC004FF0FF321A600A4B1B68012B07D12021F2
:100BFC00084800F094FD4FF47A7000F035F9FFF7D7
:100C0C00C7FDFFF71DFEEEE7A000002074000020DA
:100C1C00940000200008014080B590B000AF07F1AF
:100C2C00180328220021184601F082FD3B1D0022EA
:100C3C001A605A609A60DA601A610223BB61012360
:100C4C00BB621023FB6200237B6307F11803184679
:100C5C0000F07EFD0346002B01D000F0E3F80F23DB
:100C6C007B600023BB600023FB6000233B610023FF
:100C7C007B613B1D0021184600F0EAFF0346002B68
:100C8C0001D000F0CFF800BF4037BD4680BD00005A
:100C9C0080B586B000AF07F1080300221A605A60D5
:100CAC009A60DA603B4600221A605A601D4B4FF086
:100CBC0080421A601B4B41F63F725A60194B00225E
:100CCC009A60184B0922DA60164B00221A61154BF8
:100CDC0000229A61134801F023F90346002B01D03E
:100CEC0000F0A0F84FF48053BB6007F108031946DD
:100CFC000C4801F0B9FA0346002B01D000F092F831
:100D0C0000233B6000237B603B461946054801F0FD
:100D1C0081FC0346002B01D000F084F800BF18378B
:100D2C00BD4680BDA000002080B588B000AF07F1A3
:100D3C00100300221A605A609A60DA602D4B9B698E
:100D4C002C4A43F0100393612A4B9B6903F0100368
:100D5C00FB60FB68274B9B69264A43F004039361B5
:100D6C00244B9B6903F00403BB60BB68214B9B695C
:100D7C00204A43F0080393611E4B9B6903F0080360
:100D8C007B607B68002220211B4800F0B0FC002215
:100D9C007F211A4800F0ABFC4FF460433B61002309
:100DAC007B610123BB6107F110031946144800F065
:100DBC000DFB20233B6101237B610023BB610223DC
:100DCC00FB6107F1100319460B4800F0FFFA7F2373
:100DDC003B6101237B610023BB610223FB6107F1B3
:100DEC0010031946054800F0F1FA00BF2037BD4644
:100DFC0080BD00BF0010024000080140000C014003
:100E0C000010014080B582B000AF786000F064F84B
:100E1C00FFF7FCF9FFF74EFAFFF7C0FA00BF0837EF
:100E2C00BD4680BD80B400AF72B600BFFEE70000C7
:100E3C0080B483B000AF78607B68084A82FB0312F1
:100E4C009210DB17D31A064A1360064B00221A6065
:100E5C0000BF0C37BD4680BC704700BF6766666636
:100E6C008C0000209000002080B483B000AF78602C
:100E7C007B68084A82FB03129210DB17D31A064ACE
:100E8C001360064B00221A6000BF0C37BD4680BCB5
:100E9C00704700BF676666668800002094000020DB
:100EAC0080B483B000AF78607B68084A82FB031281
:100EBC009210DB17D31A064A1360064B00221A60F5
:100ECC0000BF0C37BD4680BC704700BF67666666C6
:100EDC00840000209800002080B400AF214B1B68D8
:100EEC00002B0BDD1F4B1B68013B1E4A13601D4B77
:100EFC001B68002B02DC1C4B01221A601B4B1B686D
:100F0C00002B0BDD194B1B68013B184A1360174B68
:100F1C001B68002B02DC164B01221A60154B1B6858
:100F2C00002B0BDD134B1B68013B124A1360114B5A
:100F3C001B68002B02DC104B01221A600F4B1B6844
:100F4C00002B0BDD0D4B1B68013B0C4A13600B4B4C
:100F5C001B68002B02DC0A4B01221A6000BFBD4645
:100F6C0080BC70478C00002090000020880000207E
:100F7C0094000020840000209800002080000020B5
:100F8C009C00002080B485B000AF154B9B69144ABF
:100F9C0043F001039361124B9B6903F00103BB60A7
:100FAC00BB680F4BDB690E4A43F08053D3610C4B8B
:100FBC00DB6903F080537B607B680A4B5B68FB60EA
:100FCC00FB6823F0E063FB60FB6843F08063FB602D
:100FDC00044AFB68536000BF1437BD4680BC7047A1
:100FEC00001002400000014080B584B000AF786072
:100FFC007B681B68B3F1804F13D10C4BDB690B4A38
:10100C0043F00103D361094BDB6903F00103FB607F
:10101C00FB68002200211C2000F0A1F91C2000F02C
:10102C00BAF900BF1037BD4680BD00BF00100240AA
:10103C0080B400AFFEE780B400AFFEE780B400AF31
:10104C00FEE780B400AFFEE780B400AFFEE780B4EB
:10105C0000AF00BFBD4680BC704780B400AF00BF7E
:10106C00BD4680BC704780B400AF00BFBD4680BC9D
:10107C00704780B500AF00F07FF800BF80BD000066
:10108C0080B500AF024800F0E7FF00BF80BD00BF95
:10109C00A000002080B400AF00BFBD4680BC7047EC
:1010AC000C480D490D4A002302E0D458C4500433B7
:1010BC00C4188C42F9D30A4A0A4C002301E013608D
:1010CC000432A242FBD3FFF7E5FF01F00DFBFFF763
:1010DC0075FD704700000020440000208C2700089C
:1010EC0044000020EC000020FEE7000080B500AFBB
:1010FC00084B1B68074A43F010031360032000F0F1
:10110C0023F90F2000F008F8FFF73CFF00231846E6
:10111C0080BD00BF0020024080B582B000AF786077
:10112C00124B1A68124B1B7819464FF47A73B3FBA7
:10113C00F1F3B2FBF3F3184600F03BF90346002B36
:10114C0001D001230EE07B680F2B0AD800227968AE
:10115C004FF0FF3000F003F9064A7B681360002360
:10116C0000E0012318460837BD4680BD380000203A
:10117C00400000203C00002080B400AF054B1B78E1
:10118C001A46054B1B681344034A136000BFBD4647
:10119C0080BC704740000020E800002080B400AF05
:1011AC00024B1B681846BD4680BC7047E800002007
:1011BC0080B485B000AF78607B6803F00703FB60F8
:1011CC000C4BDB68BB60BA684FF6FF031340BB6087
:1011DC00FB681A02BB68134343F0BF6343F400334C
:1011EC00BB60044ABB68D36000BF1437BD4680BCEB
:1011FC00704700BF00ED00E080B400AF044BDB682B
:10120C001B0A03F007031846BD4680BC704700BF9D
:10121C0000ED00E080B483B000AF0346FB7197F99A
:10122C000730002B0BDBFB7903F01F02064997F903
:10123C0007305B09012000FA02F241F8232000BFBD
:10124C000C37BD4680BC704700E100E080B483B031
:10125C0000AF03463960FB7197F90730002B0ADBAE
:10126C003B68DAB20C4997F907301201D2B20B4441
:10127C0083F800230AE03B68DAB20849FB7903F0F3
:10128C000F03043B1201D2B20B441A7600BF0C3789
:10129C00BD4680BC704700BF00E100E000ED00E0FF
:1012AC0080B489B000AFF860B9607A60FB6803F075
:1012BC000703FB61FB69C3F10703042B28BF04235D
:1012CC00BB61FB690433062B02D9FB69033B00E0CD
:1012DC0000237B614FF0FF32BB6902FA03F3DA4360
:1012EC00BB681A407B699A404FF0FF317B6901FA69
:1012FC0003F3D9437B680B40134318462437BD4690
:10130C0080BC704780B582B000AF78607B68013BD1
:10131C00B3F1807F01D301230FE00A4A7B68013BC4
:10132C0053600F214FF0FF30FFF790FF054B002269
:10133C009A60044B07221A60002318460837BD46F2
:10134C0080BD00BF10E000E080B582B000AF7860D7
:10135C007868FFF72DFF00BF0837BD4680BD80B50C
:10136C0086B000AF0346B9607A60FB7300237B61E3
:10137C00FFF742FF78617A68B9687869FFF790FFE8
:10138C00024697F90F3011461846FFF75FFF00BF72
:10139C001837BD4680BD80B582B000AF0346FB71E7
:1013AC0097F907301846FFF735FF00BF0837BD46E1
:1013BC0080BD80B582B000AF78607868FFF7A2FF7F
:1013CC00034618460837BD4680BD000080B48BB07C
:1013DC0000AF7860396000237B6200233B6248E1F8
:1013EC0001227B6A02FA03F3FB613B681B68FA6912
:1013FC001340BB61BA69FB699A4240F037813B6884
:10140C005B68A34A93425ED0A14A934275D8A14A25
:10141C00934258D09F4A93426FD89F4A934252D0DE
:10142C009D4A934269D89D4A93424CD09B4A934221
:10143C0063D89B4A934246D0994A93425DD8122B6B
:10144C002AD8122B59D801A252F823F0D314000831
:10145C00AD140008BF14000801150008071500089A
:10146C0007150008071500080715000807150008E0
:10147C0007150008071500080715000807150008D0
:10148C0007150008071500080715000807150008C0
:10149C00B5140008C9140008824A934213D02CE0FA
:1014AC003B68DB683B6229E03B68DB6804333B62EA
:1014BC0024E03B68DB6808333B621FE03B68DB6879
:1014CC000C333B621AE03B689B68002B02D104236F
:1014DC003B6213E03B689B68012B05D108233B6200
:1014EC007B68FA691A6109E008233B627B68FA6938
:1014FC005A6103E000233B6200E000BFBB69FF2B95
:10150C0001D87B6801E07B6804337B61BB69FF2BEE
:10151C0002D87B6A9B0002E07B6A083B9B003B6124
:10152C007B691A680F213B6901FA03F3DB431A400C
:10153C00396A3B6901FA03F31A437B691A603B6809
:10154C005B6803F08053002B00F09080564B9B6936
:10155C00554A43F001039361534B9B6903F001031C
:10156C00BB60BB68514A7B6A9B08023352F823303C
:10157C00FB607B6A03F003039B000F2202FA03F368
:10158C00DB43FA681340FB607B68494A93420DD0F9
:10159C007B68484A934207D07B68474A934201D103
:1015AC00022304E0032302E0012300E000237A6A13
:1015BC0002F0030292009340FA681343FB603B492C
:1015CC007B6A9B080233FA6841F823203B685B680E
:1015DC0003F48033002B06D0384B1A683749BB69AB
:1015EC0013430B6006E0354B1A68BB69DB43334988
:1015FC0013400B603B685B6803F40033002B06D090
:10160C002E4B5A682D49BB6913434B6006E02B4B9C
:10161C005A68BB69DB43294913404B603B685B68E4
:10162C0003F48013002B06D0244B9A682349BB6922
:10163C0013438B6006E0214B9A68BB69DB431F495F
:10164C0013408B603B685B6803F40013002B06D0DF
:10165C001A4BDA681949BB691343CB6006E0174B88
:10166C00DA68BB69DB4315491340CB607B6A0133F5
:10167C007B623B681A687B6A22FA03F3002B7FF4C7
:10168C00AFAE00BF00BF2C37BD4680BC704700BF5B
:10169C000000321000003110000022100000211058
:1016AC000000121000001110001002400000014058
:1016BC0000080140000C01400010014000040140F2
:1016CC0080B485B000AF78600B467B807B689A68ED
:1016DC007B881340002B02D00123FB7301E0002315
:1016EC00FB73FB7B18461437BD4680BC704780B437
:1016FC0083B000AF78600B467B8013467B707B78A1
:10170C00002B03D07A887B681A6103E07B881A046B
:10171C007B681A6100BF0C37BD4680BC704780B433
:10172C0085B000AF78600B467B807B68DB68FB6024
:10173C007A88FB6813401A04FB68D9437B880B40FA
:10174C001A437B681A6100BF1437BD4680BC7047D2
:10175C0080B586B000AF78607B68002B01D1012387
:10176C006CE27B681B6803F00103002B00F08780A0
:10177C00924B5B6803F00C03042B0CD08F4B5B6813
:10178C0003F00C03082B12D18C4B5B6803F48033F1
:10179C00B3F5803F0BD1894B1B6803F40033002B4E
:1017AC006CD07B685B68002B68D1012346E27B68B8
:1017BC005B68B3F5803F06D1804B1B687F4A43F4CE
:1017CC00803313602EE07B685B68002B0CD17B4B65
:1017DC001B687A4A23F480331360784B1B68774A72
:1017EC0023F4802313601DE07B685B68B3F5A02FA6
:1017FC000CD1724B1B68714A43F4802313606F4BFE
:10180C001B686E4A43F4803313600BE06B4B1B6810
:10181C006A4A23F480331360684B1B68674A23F4CD
:10182C00802313607B685B68002B13D0FFF7B6FC3A
:10183C00386108E0FFF7B2FC02463B69D31A642B0F
:10184C0001D90323FAE15D4B1B6803F40033002B31
:10185C00F0D014E0FFF7A2FC386108E0FFF79EFC23
:10186C0002463B69D31A642B01D90323E6E1534B9F
:10187C001B6803F40033002BF0D100E000BF7B6841
:10188C001B6803F00203002B63D04C4B5B6803F026
:10189C000C03002B0BD0494B5B6803F00C03082B9B
:1018AC001CD1464B5B6803F48033002B16D1434BA1
:1018BC001B6803F00203002B05D07B681B69012B0E
:1018CC0001D00123BAE13D4B1B6823F0F8027B6881
:1018DC005B69DB00394913430B603AE07B681B6999
:1018EC00002B20D0364B01221A60FFF757FC3861D1
:1018FC0008E0FFF753FC02463B69D31A022B01D9CF
:10190C0003239BE12D4B1B6803F00203002BF0D04B
:10191C002A4B1B6823F0F8027B685B69DB002749C4
:10192C0013430B6015E0264B00221A60FFF736FCC0
:10193C00386108E0FFF732FC02463B69D31A022BF0
:10194C0001D903237AE11D4B1B6803F00203002B22
:10195C00F0D17B681B6803F00803002B3AD07B683E
:10196C009B69002B19D0174B01221A60FFF716FC4C
:10197C00386108E0FFF712FC02463B69D31A022BD0
:10198C0001D903235AE10D4B5B6A03F00203002BD0
:10199C00F0D0012000F0A6FA1CE00A4B00221A60DD
:1019AC00FFF7FCFB38610FE0FFF7F8FB02463B69E1
:1019BC00D31A022B08D9032340E100BF00100240C8
:1019CC0000004242800442429E4B5B6A03F00203D9
:1019DC00002BE9D17B681B6803F00403002B00F09B
:1019EC00A6800023FB75974BDB6903F08053002B1B
:1019FC000DD1944BDB69934A43F08053D361914BE7
:101A0C00DB6903F08053BB60BB680123FB758E4B15
:101A1C001B6803F48073002B18D18B4B1B688A4A0C
:101A2C0043F480731360FFF7B9FB386108E0FFF7EC
:101A3C00B5FB02463B69D31A642B01D90323FDE0A5
:101A4C00814B1B6803F48073002BF0D07B68DB6840
:101A5C00012B06D17B4B1B6A7A4A43F001031362BC
:101A6C002DE07B68DB68002B0CD1764B1B6A754A2A
:101A7C0023F001031362734B1B6A724A23F00403B5
:101A8C0013621CE07B68DB68052B0CD16D4B1B6A69
:101A9C006C4A43F0040313626A4B1B6A694A43F0B5
:101AAC00010313620BE0674B1B6A664A23F00103C8
:101ABC001362644B1B6A634A23F0040313627B6852
:101ACC00DB68002B15D0FFF769FB38610AE0FFF7E4
:101ADC0065FB02463B69D31A41F28832934201D925
:101AEC000323ABE0574B1B6A03F00203002BEED031
:101AFC0014E0FFF753FB38610AE0FFF74FFB024697
:101B0C003B69D31A41F28832934201D9032395E001
:101B1C004C4B1B6A03F00203002BEED1FB7D012B17
:101B2C0005D1484BDB69474A23F08053D3617B686E
:101B3C00DB69002B00F08180424B5B6803F00C03E7
:101B4C00082B61D07B68DB69022B46D13F4B00220E
:101B5C001A60FFF723FB386108E0FFF71FFB024612
:101B6C003B69D31A022B01D9032367E0354B1B6861
:101B7C0003F00073002BF0D17B681B6AB3F5803F38
:101B8C0008D1304B5B6823F400327B689B682D498D
:101B9C0013434B602B4B5B6823F474127B68196AFC
:101BAC007B685B6A0B43274913434B60274B01222D
:101BBC001A60FFF7F3FA386108E0FFF7EFFA024614
:101BCC003B69D31A022B01D9032337E01D4B1B6849
:101BDC0003F00073002BF0D02FE01C4B00221A6096
:101BEC00FFF7DCFA386108E0FFF7D8FA02463B69E8
:101BFC00D31A022B01D9032320E0124B1B6803F0EC
:101C0C000073002BF0D118E07B68DB69012B01D14C
:101C1C00012313E00B4B5B68FB60FB6803F4803221
:101C2C007B681B6A9A4206D1FB6803F470127B68CE
:101C3C005B6A9A4201D0012300E000231846183752
:101C4C00BD4680BD00100240007000406000424262
:101C5C0080B584B000AF786039607B68002B01D10F
:101C6C000123D0E06A4B1B6803F007033A689A42E1
:101C7C0010D9674B1B6823F0070265493B68134377
:101C8C000B60634B1B6803F007033A689A4201D060
:101C9C000123B8E07B681B6803F00203002B20D003
:101CAC007B681B6803F00403002B05D0594B5B6861
:101CBC00584A43F4E06353607B681B6803F00803E5
:101CCC00002B05D0534B5B68524A43F4605353606E
:101CDC00504B5B6823F0F0027B689B684D491343C3
:101CEC004B607B681B6803F00103002B40D07B68C2
:101CFC005B68012B07D1474B1B6803F40033002BA7
:101D0C0015D101237FE07B685B68022B07D1414B27
:101D1C001B6803F00073002B09D1012373E03D4BCA
:101D2C001B6803F00203002B01D101236BE0394B3C
:101D3C005B6823F003027B685B68364913434B6096
:101D4C00FFF72CFAF8600AE0FFF728FA0246FB6866
:101D5C00D31A41F28832934201D9032353E02D4B1D
:101D6C005B6803F00C027B685B689B009A42EBD1CA
:101D7C00274B1B6803F007033A689A4210D2244B96
:101D8C001B6823F0070222493B6813430B60204B6E
:101D9C001B6803F007033A689A4201D0012332E032
:101DAC007B681B6803F00403002B08D0194B5B689D
:101DBC0023F4E0627B68DB68164913434B607B6855
:101DCC001B6803F00803002B09D0124B5B6823F44B
:101DDC0060527B681B69DB000E4913434B6000F0BB
:101DEC0021F802460B4B5B681B0903F00F030A49F1
:101DFC00CB5C22FA03F3094A1360094B1B681846A3
:101E0C00FFF78AF9002318461037BD4680BD00BF86
:101E1C000020024000100240742700083800002007
:101E2C003C00002090B48AB000AF2A4B3C1D0FCB75
:101E3C0084E80F0040F201233B800023FB61002368
:101E4C00BB6100237B6200237B6100233B62224B3E
:101E5C005B68FB61FB6903F00C03042B02D0082BBD
:101E6C0003D02DE01D4B3B622DE0FB699B0C03F076
:101E7C000F0307F12802134413F8243C7B61FB6920
:101E8C0003F48033002B13D0134B5B685B0C03F013
:101E9C00010307F12802134413F8283CBB617B694A
:101EAC000E4A02FB03F2BB69B2FBF3F37B6204E064
:101EBC007B690B4A02FB03F37B627B6A3B6202E0A9
:101ECC00064B3B6200BF3B6A18462837BD4690BCA8
:101EDC00704700BF642700080010024000127A000F
:101EEC0000093D0080B485B000AF78600A4B1B68D8
:101EFC000A4AA2FB03235B0A7A6802FB03F3FB602A
:101F0C0000BFFB685A1EFA60002BF9D100BF00BF5E
:101F1C001437BD4680BC704738000020D34D62108A
:101F2C0080B582B000AF78607B68002B01D10123B3
:101F3C0041E07B6893F83D30DBB2002B06D17B6827
:101F4C00002283F83C207868FFF74EF87B68022269
:101F5C0083F83D207B681A687B6804331946104669
:101F6C0000F06AFA7B68012283F846207B68012224
:101F7C0083F83E207B68012283F83F207B68012296
:101F8C0083F840207B68012283F841207B68012282
:101F9C0083F842207B68012283F843207B6801226E
:101FAC0083F844207B68012283F845207B6801225A
:101FBC0083F83D20002318460837BD4680BD00003D
:101FCC0080B485B000AF78607B6893F83D30DBB2AD
:101FDC00012B01D0012335E07B68022283F83D20E0
:101FEC007B681B68DA687B681B6842F00102DA6068
:101FFC007B681B68164A934209D07B681B68B3F157
:10200C00804F04D07B681B68124A934211D17B68C5
:10201C001B689B6803F00703FB60FB68062B10D062
:10202C007B681B681A687B681B6842F001021A60A7
:10203C0007E07B681B681A687B681B6842F001022A
:10204C001A60002318461437BD4680BC704700BF89
:10205C00002C01400004004080B582B000AF7860D5
:10206C007B681B681B6903F00203022B22D17B687F
:10207C001B68DB6803F00203022B1BD17B681B6817
:10208C006FF002021A617B6801221A777B681B6869
:10209C009B6903F00303002B03D0786800F0B1F9BF
:1020AC0005E0786800F0A4F9786800F0B3F97B6873
:1020BC0000221A777B681B681B6903F00403042B4E
:1020CC0022D17B681B68DB6803F00403042B1BD153
:1020DC007B681B686FF004021A617B6802221A7716
:1020EC007B681B689B6903F44073002B03D07868F2
:1020FC0000F087F905E0786800F07AF9786800F06C
:10210C0089F97B6800221A777B681B681B6903F0CE
:10211C000803082B22D17B681B68DB6803F00803DB
:10212C00082B1BD17B681B686FF008021A617B6857
:10213C0004221A777B681B68DB6903F00303002B0E
:10214C0003D0786800F05DF905E0786800F050F98C
:10215C00786800F05FF97B6800221A777B681B684F
:10216C001B6903F01003102B22D17B681B68DB6802
:10217C0003F01003102B1BD17B681B686FF010024F
:10218C001A617B6808221A777B681B68DB6903F489
:10219C004073002B03D0786800F033F905E07868C1
:1021AC0000F026F9786800F035F97B6800221A7780
:1021BC007B681B681B6903F00103012B0ED17B6844
:1021CC001B68DB6803F00103012B07D17B681B68DC
:1021DC006FF001021A617868FEF714FE7B681B68C9
:1021EC001B6903F08003802B0ED17B681B68DB68B6
:1021FC0003F08003802B07D17B681B686FF0800293
:10220C001A61786800F067FA7B681B681B6903F039
:10221C004003402B0ED17B681B68DB6803F0400346
:10222C00402B07D17B681B686FF040021A617868FD
:10223C0000F0F9F87B681B681B6903F02003202B66
:10224C000ED17B681B68DB6803F02003202B07D1C1
:10225C007B681B686FF020021A61786800F032FA14
:10226C0000BF0837BD4680BD80B584B000AF786034
:10227C0039607B6893F83C30012B01D10223B3E029
:10228C007B68012283F83C207B68022283F83D2086
:10229C007B681B689B68FB60FB6823F07703FB6023
:1022AC00FB6823F47F43FB607B681B68FA689A60C9
:1022BC003B681B68B3F5005F3ED0B3F5005F00F2DE
:1022CC008780B3F5805F00F08580B3F5805F7FD8A1
:1022DC00702B1AD0702B7BD8602B50D0602B77D8FA
:1022EC00502B3CD0502B73D8402B58D0402B6FD850
:1022FC00302B64D0302B6BD8202B60D0202B67D8A0
:10230C00002B5CD0102B5AD062E07B6818683B68BD
:10231C0099683B685A683B68DB6800F05CF97B683D
:10232C001B689B68FB60FB6843F07703FB607B6872
:10233C001B68FA689A604EE07B6818683B6899687D
:10234C003B685A683B68DB6800F045F97B681B68A2
:10235C009A687B681B6842F480429A603BE07B6819
:10236C0018683B6859683B68DB681A4600F0BCF893
:10237C007B681B685021184600F013F92BE07B6832
:10238C0018683B6859683B68DB681A4600F0DAF855
:10239C007B681B686021184600F003F91BE07B6822
:1023AC0018683B6859683B68DB681A4600F09CF873
:1023BC007B681B684021184600F0F3F80BE07B6843
:1023CC001A683B681B681946104600F0EAF802E0F0
:1023DC0000BF00E000BF7B68012283F83D207B68D2
:1023EC00002283F83C20002318461037BD4680BDE0
:1023FC0080B483B000AF786000BF0C37BD4680BCA2
:10240C00704780B483B000AF786000BF0C37BD4616
:10241C0080BC704780B483B000AF786000BF0C37CD
:10242C00BD4680BC704780B483B000AF786000BFFD
:10243C000C37BD4680BC704780B485B000AF786067
:10244C0039607B681B68FB607B68254A934207D028
:10245C007B68B3F1804F03D07B68224A934208D14A
:10246C00FB6823F07003FB603B685B68FA681343FE
:10247C00FB607B681A4A934207D07B68B3F1804FAC
:10248C0003D07B68174A934208D1FB6823F440734E
:10249C00FB603B68DB68FA681343FB60FB6823F066
:1024AC0080023B685B691343FB607B68FA681A60C7
:1024BC003B689A687B68DA623B681A687B689A6248
:1024CC007B68074A934203D13B681A697B681A639D
:1024DC007B6801225A6100BF1437BD4680BC70472F
:1024EC00002C01400004004080B487B000AFF860BD
:1024FC00B9607A60FB681B6A7B61FB681B6A23F01E
:10250C000102FB681A62FB689B693B613B6923F023
:10251C00F0033B617B681B013A6913433B617B69A8
:10252C0023F00A037B617A69BB6813437B61FB6808
:10253C003A699A61FB687A691A6200BF1C37BD461A
:10254C0080BC704780B487B000AFF860B9607A6027
:10255C00FB681B6A23F01002FB681A62FB689B691C
:10256C007B61FB681B6A3B617B6923F470437B6175
:10257C007B681B037A6913437B613B6923F0A003DF
:10258C003B61BB681B013A6913433B61FB687A6989
:10259C009A61FB683A691A6200BF1C37BD4680BC61
:1025AC00704780B485B000AF786039607B689B68F9
:1025BC00FB60FB6823F07003FB603A68FB68134315
:1025CC0043F00703FB607B68FA689A6000BF14371E
:1025DC00BD4680BC704780B487B000AFF860B9606E
:1025EC007A603B60FB689B687B617B6923F47F436B
:1025FC007B613B681A027B681A43BB6813437A6998
:10260C0013437B61FB687A699A6000BF1C37BD4637
:10261C0080BC704780B485B000AF786039607B684F
:10262C0093F83C30012B01D1022341E07B6801225D
:10263C0083F83C207B68022283F83D207B681B6872
:10264C005B68FB607B681B689B68BB60FB6823F066
:10265C007003FB603B681B68FA681343FB607B6884
:10266C001B68FA685A607B681B68144A934209D04D
:10267C007B681B68B3F1804F04D07B681B68104AE1
:10268C0093420CD1BB6823F08003BB603B685B6852
:10269C00BA681343BB607B681B68BA689A607B6836
:1026AC00012283F83D207B68002283F83C20002324
:1026BC0018461437BD4680BC704700BF002C014043
:1026CC000004004080B483B000AF786000BF0C37CA
:1026DC00BD4680BC704780B483B000AF786000BF4B
:1026EC000C37BD4680BC704770B500260C4D0D4CA8
:1026FC00641BA410A64209D100F022F800260A4D52
:10270C000A4C641BA410A64205D170BD55F8043BBD
:10271C0098470136EEE755F8043B98470136F2E747
:10272C0084270008842700088427000888270008CD
:10273C0003460244934200D1704703F8011BF9E7AA
:10274C00F8B500BFF8BC08BC9E467047F8B500BF92
:08275C00F8BC08BC9E46704762
:1027640002030405060708090A0B0C0D0E0F1010CE
:10277400000000000000000001020304060708092D
:042784003101000817
:042788000D01000837
:10278C000100000001000000010000000100000039
:10279C000100000001000000010000000100000029
:1027AC000100000001000000010000000100000019
:1027BC000A000000090000000024F40010000000D2
:0427CC000100000008
:04000005080010AD32
:00000001FF
